:100000000C9462000C947F000C947F000C947F0091
:100010000C947F000C947F000C947F000C940803D8
:100020000C947F000C947F000C947F000C947F0054
:100030000C947F000C947F000C947F000C947F0044
:100040000C94BE020C947F000C947F000C947F00F3
:100050000C947F000C947F000C947F000C947F0024
:100060000C947F000C947F00000000002300260009
:10007000290000000000240027002A0000000008DA
:10008000000201000003040700000000000000005F
:10009000010204081020408001020408102001021F
:1000A0000408102000000000250028002B00040494
:1000B0000404040404040202020202020303030310
:1000C0000303020011241FBECFEFD8E0DEBFCDBF77
:1000D00011E0A0E0B1E0E4EDFFE002C005900D9278
:1000E000A631B107D9F721E0A6E1B1E001C01D9228
:1000F000A634B207E1F70E94CF030C94E8070C94F2
:100100000000833081F028F4813099F08230A9F02A
:1001100008958730A9F08830C9F08430B1F4809117
:1001200080008F7D03C0809180008F778093800056
:10013000089584B58F7784BD089584B58F7DFBCFF6
:100140008091B0008F778093B00008958091B000C7
:100150008F7DF9CF1F93CF93DF93282F30E0F901E4
:10016000E458FF4F8491F901E057FF4FD491F90112
:10017000E255FF4FC491CC23A9F0162F81110E94A4
:100180008100EC2FF0E0EE0FFF1FEC55FF4FA59123
:10019000B4918FB7F894EC91111108C0D095DE237B
:1001A000DC938FBFDF91CF911F910895DE2BF8CFA5
:1001B000CF93DF9390E0FC01E057FF4F24918255ED
:1001C0009F4FFC0184918823C9F090E0880F991F0C
:1001D000FC01EE58FF4FA591B491FC01EC55FF4F87
:1001E000C591D49161110DC09FB7F8948C91209561
:1001F00082238C938881282328839FBFDF91CF910E
:100200000895623051F49FB7F8943C91822F809505
:1002100083238C93E8812E2BEFCF8FB7F894EC914A
:100220002E2B2C938FBFEACF4F925F926F927F92CB
:100230008F929F92AF92BF92CF92DF92EF92FF92F6
:100240000F931F93CF938C016A017B01809104016E
:10025000833099F08F3F09F453C0CF911F910F91D4
:10026000FF90EF90DF90CF90BF90AF909F908F90D6
:100270007F906F905F904F900895E2ECF0E0C49112
:10028000C7FDEBCF61E083E00E94D8002801712C0C
:10029000612CCC23F1F0980150E040E0C23009F02D
:1002A0009EC028013A0160E970ED83E090E00E9471
:1002B000AF0749015A0181E0881A9108A108B108E5
:1002C00093E08FEF88169104A104B10409F00CF4B7
:1002D000DFC068E478EE81E090E0A30192010E9423
:1002E000AF0749015A0181E0881A9108A108B108B5
:1002F00094E0C111CDC085B5887F836085BD84C081
:1003000083E080930401E2ECF0E0C491CF3F09F474
:10031000A4CFC13021F150F0C23009F43EC0C7FD76
:100320009CCF61E083E00E94D800B5CF14BC15BC1F
:1003300084B5826084BD85B5816085BDE1EBF0E068
:10034000E491F0E0EE0FFF1FEC55FF4F8591949183
:10035000E3E9F0E0E491E0933901C0E093CF10923B
:1003600080001092810080918100886080938100DC
:1003700080918100816080938100E1EBF0E0E49165
:10038000F0E0EE0FFF1FEC55FF4F85919491E3E9EC
:10039000F0E0E491E093380175CF1092B000109234
:1003A000B1008091B00082608093B0008091B10074
:1003B00081608093B100E1EBF0E0E491F0E0EE0FBA
:1003C000FF1FEC55FF4F85919491909337018093D7
:1003D0003601E3E9F0E0E491E093350153CF60E0CA
:1003E00072E18AE790E00E94AF0749015A0181E07B
:1003F000881A9108A108B108C13031F480918100B8
:10040000887F816080938100D801AA0FBB1FA7015C
:1004100096010E94CE0728EE33E040E050E00E94B3
:100420008D07C13099F0C23019F1C11116CF87BCC8
:10043000209342013093430140934401509345017E
:1004400080916E00826080936E0007CF9092890049
:100450008092880020933E0130933F0140934001F9
:100460005093410180916F00826080936F00F5CEC0
:100470008092B30020933A0130933B0140933C01BA
:1004800050933D0180917000826080937000E5CEB2
:100490008091B100887F892B8093B100B5CF3FB7A1
:1004A000F8948091310190913201A0913301B09183
:1004B000340126B5A89B05C02F3F19F00196A11D58
:1004C000B11D3FBFBA2FA92F982F8827BC01CD019E
:1004D000620F711D811D911D42E0660F771F881FFD
:1004E000991F4A95D1F708958F929F92AF92BF922C
:1004F000CF92DF92EF92FF924B015C010E944F027C
:100500006B017C010E944F026C197D098E099F09C5
:10051000683E734081059105A8F321E0821A910895
:10052000A108B10888EEC80E83E0D81EE11CF11CBA
:1005300081149104A104B10429F7FF90EF90DF909A
:10054000CF90BF90AF909F908F9008952FB7F89461
:1005500060912D0170912E0180912F0190913001B9
:100560002FBF089560E089E00E94AA0060E08AE061
:100570000E94AA0060E08BE00C94AA001F920F92E8
:100580000FB60F9211242F933F938F939F93AF93A6
:10059000BF9380912D0190912E01A0912F01B091D8
:1005A000300130912C0123E0230F2D3758F50196AF
:1005B000A11DB11D20932C0180932D0190932E013C
:1005C000A0932F01B09330018091310190913201BD
:1005D000A0913301B09134010196A11DB11D80930A
:1005E000310190933201A0933301B0933401BF9154
:1005F000AF919F918F913F912F910F900FBE0F90D0
:100600001F90189526E8230F0296A11DB11DD2CF89
:100610001F920F920FB60F9211242F933F934F9377
:100620005F936F937F938F939F93AF93BF93EF935A
:10063000FF9380913A0190913B01A0913C01B091D0
:100640003D01892B8A2B8B2BD1F190913501E091C3
:100650003601F091370180818927808380913A01AA
:1006600090913B01A0913C01B0913D0118161906F3
:100670001A061B069CF480913A0190913B01A091CF
:100680003C01B0913D010197A109B10980933A0164
:1006900090933B01A0933C01B0933D01FF91EF91FA
:1006A000BF91AF919F918F917F916F915F914F918A
:1006B0003F912F910F900FBE0F901F901895809132
:1006C0000401E2ECF0E0E4919FEF90930401E1304B
:1006D00051F030F0E23069F060E00E94AA00DECF15
:1006E00010926E00F9CF90916F009D7F90936F00F4
:1006F000F3CF909170009D7F9093700091E0909364
:10070000B0009091B100987F94609093B1001092E6
:10071000B300E2CFCF92DF92EF92FF920F931F933D
:10072000E82FF92F05C0015011092109310961F1A4
:10073000908196239417B9F305C00150110921093E
:10074000310911F1908196239413F7CFC12CD12C4C
:10075000E12CF12C0AC08FEFC81AD80AE80AF80A6F
:100760000C151D052E053F0579F080818623841721
:1007700091F36C2D7D2D8E2D9F2D1F910F91FF904C
:10078000EF90DF90CF90089560E070E080E090E01F
:100790001F910F91FF90EF90DF90CF900895789484
:1007A00084B5826084BD84B5816084BD85B5826076
:1007B00085BD85B5816085BD80916E008160809327
:1007C0006E00109281008091810082608093810090
:1007D00080918100816080938100809180008160A0
:1007E000809380008091B10084608093B1008091FB
:1007F000B00081608093B00080917A008460809323
:100800007A0080917A00826080937A0080917A00E9
:10081000816080937A0080917A00806880937A006A
:100820001092C10061E087E00E94D80060E088E09B
:100830000E94D80061E084E00E94D80062E082E07B
:100840000E94D80061E083E00E94D80061E089E066
:100850000E94D80061E08AE00E94D80061E08BE04D
:100860000E94D80060E084E00E94AA000E94B202C8
:1008700044E650E060E070E088EE93E00E941401EE
:1008800073E0472E512CE3E2CE2ED12CEE24E394DC
:10089000F12C7724739456EB252E50E0352E60E032
:1008A000A62E60E0B62EC0912A01D0912B01209790
:1008B00009F0DCC0EEE7F0E08491E2E9F0E00491B9
:1008C000E0EBF0E01491112399F081110E94810076
:1008D000E12FF0E0EE0FFF1FE859FF4FA591B49113
:1008E0008C91082391E080E009F490E0C92FD82F83
:1008F000809101018C171D0651F00E94A6026093A1
:100900001A0170931B0180931C0190931D010E949A
:10091000A60200911A0110911B0120911C01309137
:100920001D01601B710B820B930B633371058105F5
:10093000910508F461C0809100018C171D0609F42F
:100940005BC010911E0181E0209709F480E0809344
:100950000001209709F050C00E94A6026093160182
:10096000709317018093180190931901111107C01A
:1009700070921E01F0920301E09202010CC080917E
:100980000201909103010196843091059CF79093A8
:1009900003018093020100910201109103010E9462
:1009A000B2021016110644F561E089E00E94AA0027
:1009B0000130110559F061E08AE00E94AA0002307E
:1009C000110521F061E08BE00E94AA00912C812C9E
:1009D00046E950E060E070E088EE93E00E94140188
:1009E0006CE271E080E090E00E947402FFEF8F1AE9
:1009F0009F0A0815190561F7C170C0930101809124
:100A00001E01882399F10E94A602009116011091FF
:100A100017012091180130911901601B710B820B95
:100A2000930B693B7B408105910500F110921E01FB
:100A3000809102019091030190932B0180932A01F0
:100A40004CE251E060E070E080EB94E00E94140121
:100A50001092230110922401109225011092260178
:100A600010922701F0920301E092020160E087E01A
:100A70000E94AA00C2010197F1F761E087E00E949D
:100A8000AA00C6010197F1F760E087E00E94AA0082
:100A9000E8E9F0E06491F1018491E82FF0E0EE0FD5
:100AA000FF1FE859FF4F8591949100E21EE420E07A
:100AB00030E0462F0E948A0361157105810591057A
:100AC00029F06F5F7F4F8F4F9F4F9F700E9494065A
:100AD00026E933E44BE05DE30E94F80620E030E0D5
:100AE00040E05FE30E94F8060E945C069B01AB01B8
:100AF000425051094F38514010F027EE33E0C09179
:100B00002A01D0912B011C161D060CF0D0C0C90182
:100B1000449721E08F31910508F020E030912901C0
:100B2000231709F483C0209329014F9708F078C058
:100B30007092280161E084E00E94AA008091270160
:100B4000811115C07092270103E010E044E650E0E7
:100B500060E070E08CED95E00E94140166E970E0C1
:100B600080E090E00E9474020150110979F78091B1
:100B70002801882309F45EC080912301909124010B
:100B8000A0912501B09126018C599F4FAF4FBF4FC7
:100B90008093230190932401A0932501B093260113
:100BA000CC0FDD1FCC0FDD1FCB5FDE4F488159819D
:100BB0006A817B8184179507A607B707D8F1109241
:100BC000280160E084E00E94AA0010922B0110929C
:100BD0002A01F0920301E092020110922301109287
:100BE00024011092250110922601109227011092E3
:100BF000290110921E010E94B202C3E0D0E04CE233
:100C000051E060E070E080E293E00E94140160E94E
:100C100071E080E090E00E947402219781F70AC0A1
:100C20001092280160E084E00E94AA0080912901CE
:100C300081119DCF8091290181112CC080912A01C1
:100C400090912B01181619062CF50E94A60200910E
:100C50001F01109120012091210130912201601B80
:100C6000710B820B930B683E73408105910590F0E8
:100C700046E950E060E070E080EB94E00E941401EF
:100C80000E94A60260931F017093200180932101AE
:100C90009093220164E670E080E090E00E9474028C
:100CA000A114B10409F4FFCD0E940000F2CD60E070
:100CB00084E00E94AA00EECF0E9463066894B111FE
:100CC0000C94F20608950E94D70688F09F5798F07A
:100CD000B92F9927B751B0F0E1F0660F771F881F41
:100CE000991F1AF0BA95C9F714C0B13091F00E945B
:100CF000F106B1E008950C94F106672F782F88274C
:100D0000B85F39F0B93FCCF3869577956795B39581
:100D1000D9F73EF490958095709561957F4F8F4FF0
:100D20009F4F0895E89409C097FB3EF490958095F5
:100D3000709561957F4F8F4F9F4F9923A9F0F92FA1
:100D400096E9BB279395F695879577956795B7951F
:100D5000F111F8CFFAF4BB0F11F460FF1BC06F5F05
:100D60007F4F8F4F9F4F16C0882311F096E911C017
:100D7000772321F09EE8872F762F05C0662371F038
:100D800096E8862F70E060E02AF09A95660F771F4C
:100D9000881FDAF7880F9695879597F9089557FD7C
:100DA0009058440F551F59F05F3F71F04795880FD9
:100DB00097FB991F61F09F3F79F087950895121670
:100DC00013061406551FF2CF4695F1DF08C016161C
:100DD00017061806991FF1CF8695710561050894CD
:100DE0000895E894BB2766277727CB0197F90895E4
:100DF0000E940B070C947C070E946E0738F00E943B
:100E0000750720F0952311F00C9465070C946B077F
:100E100011240C94F2060E94CF0670F3959FC1F343
:100E2000950F50E0551F629FF001729FBB27F00D98
:100E3000B11D639FAA27F00DB11DAA1F649F6627ED
:100E4000B00DA11D661F829F2227B00DA11D621F3C
:100E5000739FB00DA11D621F839FA00D611D221FF6
:100E6000749F3327A00D611D231F849F600D211DDA
:100E7000822F762F6A2F11249F5750409AF0F1F05D
:100E800088234AF0EE0FFF1FBB1F661F771F881FC6
:100E900091505040A9F79E3F510580F00C94650792
:100EA0000C94F2065F3FE4F3983ED4F38695779571
:100EB0006795B795F795E7959F5FC1F7FE2B880F6C
:100EC000911D9695879597F9089597F99F6780E802
:100ED00070E060E008959FEF80EC089500240A948C
:100EE0001616170618060906089500240A94121605
:100EF0001306140605060895092E0394000C11F438
:100F0000882352F0BB0F40F4BF2B11F460FF04C0E4
:100F10006F5F7F4F8F4F9F4F0895A1E21A2EAA1B3C
:100F2000BB1BFD010DC0AA1FBB1FEE1FFF1FA21799
:100F3000B307E407F50720F0A21BB30BE40BF50B96
:100F4000661F771F881F991F1A9469F7609570951F
:100F5000809590959B01AC01BD01CF010895052EB0
:100F600097FB1EF400940E94C60757FD07D00E940D
:100F70008D0707FC03D04EF40C94C607509540959E
:100F8000309521953F4F4F4F5F4F08959095809535
:100F9000709561957F4F8F4F9F4F08950E94D9079D
:100FA000A59F900DB49F900DA49F800D911D1124BD
:100FB0000895A29FB001B39FC001A39F700D811D32
:100FC0001124911DB29F700D811D1124911D089552
:040FD000F894FFCFC3
:100FD40001010100FF0000000060EA0000C02709D1
:060FE40000804F12000026
:00000001FF
